:020000040800F2
:10000000B823002045010008010400088903000806
:10001000FD0300086D0200089720000800000000A2
:10002000000000000000000000000000991C000813
:100030007102000800000000B7010008AD1D0008B3
:100040005F0100085F0100085F0100085F01000810
:100050005F0100085F0100085F0100085F01000800
:100060005F0100085F0100085F0100085F010008F0
:100070005F0100085F0100085F0100085F010008E0
:100080005F0100085F0100085F0100085F010008D0
:100090005F0100085F0100085F0100085F010008C0
:1000A0005F0100085F0100085F0100085F010008B0
:1000B0005F0100085F0100085F0100085F010008A0
:1000C0005F0100085F0100085F0100085F01000890
:1000D0005F0100084D1E00085F0100085F01000875
:1000E0005F0100085F0100085F0100085F01000870
:1000F0005F0100085F0100085F0100085F01000860
:100100005F0100085F0100085F0100085F0100084F
:10011000291E00085F0100085F0100085F01000858
:100120005F0100085F0100085F0100085F0100082F
:10013000DFF80CD000F088F800480047412600089E
:10014000B82300200648804706480047FEE7FEE740
:10015000FEE7FEE7FEE7FEE7FEE7FEE7FEE7FEE777
:10016000C91D000831010008EFF3108072B6704716
:1001700080F310887047204C204D25604FF000041C
:1001800084F309881E4C4FF0010525701D4C4FF07B
:100190008055256062B6FEE730B41A4C4FF08055AA
:1001A000256030BC704730B4164C4FF08055256048
:1001B00030BC704700BF72B6EFF3098028B1203819
:1001C00080E8F00F10490968086000B50F488047C3
:1001D0005DF804EB0E480F490A7802700A480E4990
:1001E0000A680260106890E8F00F203080F30988F8
:1001F0004EF0040E62B6704720ED00E00000FFFFF5
:100200007200002004ED00E078000020990F000843
:1002100067000020680000208000002030B50B46F9
:10022000014600202022012409E021FA02F59D4226
:1002300005D303FA02F5491B04FA02F52844151EFA
:10024000A2F10102F1DC30BD064C074D06E0E0688A
:1002500040F0010394E8070098471034AC42F6D30D
:10026000FFF76AFF842A0008A42A000800BFFEE7FF
:1002700070472DE9F04102460025002600200023AA
:100280000024002791F803C00CF00F0591F803C07B
:100290000CF0100CBCF1000F03D091F802C04CEA36
:1002A000050591F800C0BCF1000F31D014680020A2
:1002B0002BE04FF0010C0CFA00F3B1F800C00CEA8F
:1002C00003069E4220D183004FF00F0C0CFA03F777
:1002D000BC4305FA03FC4CEA040491F803C0BCF1EA
:1002E000280F06D14FF0010C0CFA00FCC2F814C024
:1002F0000AE091F803C0BCF1480F05D14FF0010CA2
:100300000CFA00FCC2F810C0401C0828D1D31460BD
:10031000B1F800C0BCF1FF0F34DD546800202EE0BE
:1003200000F1080C4FF0010808FA0CF3B1F800C016
:100330000CEA03069E4221D183004FF00F0C0CFA09
:1003400003F7BC4305FA03FC4CEA040491F803C02C
:10035000BCF1280F05D100F1080C08FA0CF8C2F81E
:10036000148091F803C0BCF1480F07D100F1080CCC
:100370004FF0010808FA0CF8C2F81080401C082859
:10038000CED35460BDE8F08100BFFEE708B501217F
:10039000502001F007FC48208DF803004FF4005076
:1003A000ADF8000003208DF8020069460548FFF70C
:1003B00060FF0120ADF8000069460348FFF759FFD0
:1003C00008BD0000001001400018014008B50121DF
:1003D000102001F0E7FB3820ADF8000010208DF868
:1003E000030003208DF8020069460348FFF741FF30
:1003F000FFF7CCFF08BD00000010014000BFFEE782
:100400007047000070B5002100230F22C47804B3A8
:10041000154C246804F4E064C4F5E064210AC1F1D9
:100420000403CA40447804FA03F184781440214359
:1004300009010E4C0678A155047804F01F0501242B
:10044000AC4005786D11AD0005F1E025C5F800411F
:1004500009E0047804F01F050124AC40044D06783F
:10046000761145F8264070BD0CED00E000E400E098
:1004700080E100E002490143024A11607047000038
:100480000000FA050CED00E010B500F015F801F0E1
:10049000FDF801F025F901F045F901F0CDF801F082
:1004A0009FF801F0D9F901F07DF901F0A3F900F00E
:1004B000D7FE00F007F810BD002001490880704702
:1004C000AC0000207047000006480078012808D1E1
:1004D00005480078FF2804D203480078401C0249F0
:1004E00008707047720000206500002010B50024DD
:1004F0001A480078012830D1FFF736FE0446184824
:10050000007820B116480078401E1549087014483C
:100510000078F8B913480078E0B901F0FFF9124803
:100520001249097850F82100114908600F480078F5
:100530001049097888420DD00D480068806B401C36
:100540000B49096888630C480068401C0A49086028
:10055000FFF729FE2046FFF70BFE10BD72000020BA
:100560006500002066000020901500206800002033
:1005700080000020670000204C00002070B5054678
:1005800000260F48007808B1002070BDFFF7ECFD91
:1005900006460C480468006820B10A4800684068B4
:1005A000084908603046FFF7E3FD3CB101202070A8
:1005B000002020816560204601F004F82046E4E731
:1005C00065000020500000202DE9F04105460F464F
:1005D00014464FF000082878012804D0012020702C
:1005E0000020BDE8F0813648007818B10220207064
:1005F0000020F6E73348007818B10D202070002065
:10060000EFE7FFF7B1FD80466E6846B100206860F5
:100610004046FFF7ADFD002020703046E1E72A4854
:10062000006890F8300040F002002749096881F81E
:10063000300000202449096881F831002248006810
:10064000C762284600F080FF4046FFF791FD01F0A9
:100650002BF9FFF789FD80461B48006890F83100B0
:1006600020B101280DD002280AD105E01648006803
:10067000066A002020700DE000260E20207009E0A0
:1006800000BF29461048006800F048FF00260A20F5
:10069000207000BF00BF00200B49096881F83000BE
:1006A0000949096881F8310007490968C8610649A4
:1006B000096808624046FFF75BFD304691E700009D
:1006C00065000020660000207800002070B5044618
:1006D0000D4600262078012801D0012070BDFFF7CB
:1006E00043FD0646A07A60B1002302222946204637
:1006F00000F0D2FE3046FFF73BFD01F0D5F80020B8
:10070000ECE7606820B13046FFF732FD1420E5E7E2
:1007100065603046FFF72CFD0020DFE72DE9F04152
:1007200006460F464FF000081F48007810B1002021
:10073000BDE8F081FFF718FD80461C480568006899
:1007400020B11A4800684068184908604046FFF721
:100750000FFD3DB3FFF708FD804615480468C4B19E
:1007600000680068124908604046FFF701FD6660B6
:1007700006EB8700A060E6602661A7820020E08289
:1007800002202870002028816C60284600F01AFFA3
:1007900008E0064800686860044805604046FFF7C6
:1007A000E7FC00252846C3E7650000205000002034
:1007B0008C0000202DE9F0470746884615464FF08B
:1007C00000093878022804D0012028700020BDE8F4
:1007D000F0873C48007818B1022028700020F6E726
:1007E0003948007818B10D2028700020EFE7FFF796
:1007F000BBFC81467C68E08A98B12169081D2061B4
:100800000E68E08A401EE082A1682069884201D11A
:10081000606820614846FFF7ABFC00202870304636
:10082000D5E72A48006890F8300040F004002749D6
:10083000096881F8300000202449096881F83100F6
:1008400022480068C0F82C80384600F07DFE4846FB
:10085000FFF78EFC01F028F8FFF786FC81461B4865
:10086000006890F8310020B101280DD002280AD18B
:1008700005E016480068066A002028700DE0002692
:100880000E20287009E000BF39461048006800F0CB
:1008900045FE00260A20287000BF00BF00200B493B
:1008A000096881F830000949096881F83100074971
:1008B0000968C8610549096808624846FFF758FC9D
:1008C000304684E7650000206600002078000020A4
:1008D00010B500240B480078012811D1FFF744FC23
:1008E00004460948007840B908480078FF2804D237
:1008F00006480078401C054908702046FFF738FC80
:1009000010BD00007200002065000020660000207D
:1009100010B5002413480078012821D1FFF724FCEA
:10092000044611480078C0B10F480078401E0E49B7
:1009300008700846007860B90C48007828B920464D
:10094000FFF716FC00F0B0FF0AE02046FFF710FCAE
:1009500006E02046FFF70CFC02E02046FFF708FC0B
:1009600010BD00007200002066000020650000201D
:1009700070B5054600260F48007808B1002070BD0C
:10098000FFF7F2FB06460C480468006820B10A48ED
:1009900000684068084908603046FFF7E9FB3CB151
:1009A00003202070258100206060204600F00AFEB0
:1009B0002046E4E765000020500000202DE9F041CA
:1009C00005460E46144600272878032803D0012048
:1009D0002070BDE8F0813148007810B1022020700D
:1009E000F7E72F48007810B10D202070F1E7FFF7EE
:1009F000BBFB0746288940B12889401E288138461C
:100A0000FFF7B6FB00202070E3E72648006890F867
:100A1000300040F001002349096881F830000020CF
:100A20002049096881F831001E480068C6622846DE
:100A300000F08AFD3846FFF79BFB00F035FFFFF71B
:100A400093FB07461748006890F8310020B1012851
:100A500009D0022806D102E0002020700BE00E2011
:100A6000207008E000BF29460E48006800F056FDDF
:100A70000A20207000BF00BF00200A49096881F8E1
:100A800030000849096881F8310006490968C861E1
:100A90003846FFF76DFB00BF9BE7000065000020B4
:100AA000660000207800002070B5044600252078FC
:100AB000032801D0012070BDFFF756FB0546A07A40
:100AC00060B1002301221946204600F0E5FC2846CB
:100AD000FFF74EFB00F0E8FE0020ECE720894FF620
:100AE000FF71884207D22089401C20812846FFF7E9
:100AF0003FFB0020DFE72846FFF73AFB3320DAE729
:100B000010B50B48007890B900F008FF094800784C
:100B10000949087009480749097850F8210008492F
:100B200008600846006807490860FFF724FB10BD0D
:100B3000720000206800002067000020901500204F
:100B40008000002078000020704700002DE9FE4F53
:100B500006460F4690461C464FF00009FFF704FB7F
:100B600081461F48007828B14846FFF701FB3C202A
:100B7000BDE8FE8F1B4850F8240060BB01201949D6
:100B800041F824004846FFF7F3FA0023424639466D
:100B9000304600F05FF98246002000900190034645
:100BA000024651460290204600F0CEFE054635B979
:100BB0000D48007801280CD100F076FE09E0FFF71F
:100BC000D3FA81460020074941F824004846FFF740
:100BD000CFFA2846CCE74846FFF7CAFA2820C7E7ED
:100BE0006500002090150020720000202DE9F04FD4
:100BF00085B081468A4693461C46DDE90F78129DF2
:100C000000200390FFF7B0FA03902348007830B13A
:100C10000398FFF7ADFA3C2005B0BDE8F08F1F4800
:100C200050F8240088BB01201C4941F82400039897
:100C3000FFF79EFA2A464146384600F095FF2B46BC
:100C40005A465146484600F005F904901198CDE9FE
:100C5000008002953A4620460E9B049900F074FEEF
:100C6000064636B90E48007801280CD100F01CFE6B
:100C700009E0FFF779FA03900020084941F82400C1
:100C80000398FFF775FA3046C6E7FFE70398FFF7CA
:100C90006FFA2820C0E700006500002090150020B2
:100CA00072000020704770472DE9F04106460F465C
:100CB00014464FF000081548007818B11220207033
:100CC000BDE8F081FFF750FA8046FF2E03D11048AF
:100CD000006890F832600F4850F826502DB9404611
:100CE000FFF746FA43202070EAE7012D05D1404680
:100CF000FFF73EFA43202070E2E7EF644046FFF73B
:100D000037FA0020207000BFDAE7000065000020FD
:100D1000780000209015002070B505460026FFF7EA
:100D200023FA0646234850F8254024B93046FFF7F9
:100D30001FFA462070BD012C04D13046FFF718FA87
:100D40004320F7E794F8300000F0080060B314F88F
:100D5000300F00F0F700207014F83009F8B9E06A9D
:100D6000C8B93434A0781449097808431249087086
:100D700020781249085C6178084314F834190F4A46
:100D800050543046FFF7F4F90D480078012809D196
:100D900000F08AFD06E03046FFF7EAF902E030464F
:100DA000FFF7E6F90020C5E73046FFF7E1F94420F8
:100DB000C0E7000090150020690000206A000020B4
:100DC00072000020704700002DE9F04707460D46ED
:100DD0004FF0000A002028606860FFF7C5F98246DE
:100DE000FF2F03D11948006890F83270184850F866
:100DF00027402CB95046FFF7BBF94320BDE8F087E8
:100E0000012C04D15046FFF7B3F94320F6E7207CCC
:100E100000F0010020B95046FFF7AAF94520EDE7A0
:100E20000026D4F80C90D4F808805046FFF7A0F9BB
:100E300000E0761C58F8041B0029FAD0B0002860A6
:100E4000A9EB0600800068600020D7E7780000204A
:100E50009015002070B5044610464FF0807505606F
:100E6000051F28462C606FF00106051F28462E60DE
:100E70004FF01236051F28462E604FF00336051F2F
:100E800028462E604FF00236051F28462E60761049
:100E9000051F28462E60051F284629604FF0113691
:100EA000051F28462E604FF01036051F28462E607D
:100EB0004FF00936051F28462E604FF00836051FF3
:100EC00028462E604FF00736051F28462E604FF04B
:100ED0000636051F28462E604FF00536051F2846AA
:100EE0002E604FF00436051F28462E6070BD0000AE
:100EF0002DE9F04105464FF00008FFF735F980462F
:100F0000FF2D05D12048006890F83250012608E0F6
:100F10001D48006890F83200A84201D1012600E087
:100F200000261A4850F825402CB94046FFF720F912
:100F30004820BDE8F081012C04D14046FFF718F9A4
:100F40004320F6E794F834701148C05D94F83510EA
:100F500088430F49C8550846C05D30B994F836102B
:100F60000C48007888430B49087094F8300040F032
:100F7000080084F830004046FFF7FAF8012E01D14E
:100F800000F092FC0020D4E77800002090150020AB
:100F90006A000020690000207047000070B5054617
:100FA00000261748007800B170BD1648007800B1DF
:100FB000FAE71DB3FFF7D8F806461348006890F823
:100FC00034401248005D1049096891F83510884393
:100FD0000E4908550846005D40B90B48006890F876
:100FE00036100B48007888430949087006480068A5
:100FF000C5623046FFF7BCF800F056FC00BFD3E7EF
:101000006500002066000020780000206A000020B3
:101010006900002070B5002600F072F8FFF7A4F810
:10102000064631480068401C2F4908603046FFF7EB
:101030009FF82E480078012853D12D48007820B120
:10104000012804D0022809D103E001250BE0002586
:1010500009E0012501202649087004E0012500204F
:101060002349087000BF00BF05B970BD214804685E
:1010700033E0FFF779F80646E06A50B3E06A401EB5
:10108000E062E06A28BB94F8300000F0370040B11D
:1010900014F8300F00F0C800207001206070303C60
:1010A00002E0002084F8310094F8300000F00800DD
:1010B00078B93434A0781049097808430E4908708B
:1010C00020780E49085C6178084314F834190B4AFB
:1010D000505464693046FFF74BF894F832003F28CB
:1010E000C7D100BFC1E700009000002072000020BF
:1010F0008800002084000020690000206A00002091
:1011000010B507480088401C05490880084600883B
:10111000022803D30020088000F036F810BD00003C
:10112000AC0000202DE9F05F06460F469046994638
:10113000DDE90AAB0C9D1348007820B18B202870A4
:101140000020BDE8F09FFFF7C3FB00F069F80446FC
:101150002CB9FFF7DDFB862028700020F1E7012085
:1011600084F82500A661E76184F82480C4F804901F
:10117000C4F808A0C4F820B0FFF7CAFB002028700C
:101180002046DEE76500002010B503480068FFF741
:101190008BFC0446204610BDA000002070B505461B
:1011A0000C462878642803D089202070002070BD68
:1011B0001A48007818B18B2020700020F7E7FFF75D
:1011C00087FB95F82500E8B1012810D002280FD040
:1011D00003281DD1284600F03DF90021284600F0E3
:1011E000C3F8FFF795FB002020700120DFE700BF68
:1011F0000021284600F0B8F8FFF78AFB0020207095
:101200000120D4E7FFF784FB872020700020CEE781
:10121000FFF77EFB8D2020700020C8E765000020CE
:101220000C48006808B9002070470A480168094A5C
:10123000C86810600020C860086107480088401C2A
:10124000054A108005480088401E044A1080084660
:10125000EAE70000A400002096000020940000208F
:101260002DE9F0414FF42071224800F0EBFA4021C3
:10127000214800F0E7FA002514E0681C86B205EB6F
:1012800085001C4901EBC00406EB860001EBC0079A
:1012900064202070002084F82500E76017A02062F9
:1012A000681C85B20F2DE8D305EB8500114901EBD1
:1012B000C00464202070002084F82500E0600FA0A6
:1012C000206200200E4908600E49088010200E4957
:1012D000088008480D4908600120FFF749FB0C49C8
:1012E00008600020FFF744FB0A49086000F014F88A
:1012F000BDE8F081F81A0020781F00203F000000B0
:10130000980000209600002094000020A4000020F7
:101310009C000020A000002000B587B00320002121
:1013200080220A4BCDE90132CDE903104FF6FD7062
:101330000B46074A00900748FFF758FC06AA06A18B
:101340000020FFF7B1FC07B000BD0000781D0020B1
:10135000741F0020D513000875432F4F532D4949A2
:1013600020546D720000000070B50B46032580F814
:101370002550012B05D1154EC569366835444561A8
:101380000CE085692DB9114EC56936683544456153
:1013900004E00E4E8569366835444561057D05F0EB
:1013A00007040B4D05EBC4010D682DB9086000253D
:1013B000C56001258D8006E00A680860C260106182
:1013C0008D886D1C8D800025056170BD9800002002
:1013D000781F002008B500BF00BF6A4600211A48E8
:1013E0000068FFF7EBFAFFF773FA18480068401C33
:1013F000164908600846007800F00708144800EB1A
:10140000C8073C681AE0E6681049606909688842C4
:1014100013D1204600F01EF894F82400022804D1CD
:1014200001212046FFF7A0FF02E0022084F82500FA
:10143000656815B12046A168A8473446002CE2D162
:10144000FFF766FAC9E70000A0000020980000201E
:10145000781F002030B5057D05F007040D4D05EB24
:10146000C4031D68854205D1C168196039B10025E2
:101470000D6104E00169C268CA6002B11161012511
:1014800080F825500025C56005619D886D1E9D80F2
:1014900030BD0000781F00202DE9F04F05460F46B3
:1014A00090469946A87A19490E5C05F10B00805DBB
:1014B00011F800B00BEBC60000F0FF0A144850F81A
:1014C0002A4000202034E0602760207C20EA0800C9
:1014D000207484F81190207C203C00F0080068B94A
:1014E00094F836000B49097808430A4908700A48FD
:1014F000805D94F8351008430749885529462046F1
:1015000000F00CF85046BDE8F08F00008429000878
:1015100090150020690000206A00002010B590F8A6
:10152000342001F10B039B5C90F83540A34301F19B
:101530000B04A35423469B5C23B98B7A90F8364066
:10154000A3438B7210BD000010B51B4A1268D06116
:10155000194A126892F8343000F10B02D25C164B33
:101560001B6893F835301A43134B1B6893F83440CB
:1015700000F10B031A55827A0F4B1B6893F8363033
:101580001A4382720C4A126892F834100B4A525C69
:10159000094B1B6893F835309A43084B5A541A4646
:1015A000525C42B9044A126892F83630044A127802
:1015B0009A43034B1A7010BD780000206A00002087
:1015C00069000020014600228A72002005E0002305
:1015D00001F10B021354421CD0B20828F7D3704714
:1015E0002DE9F0415021114800F02CF900250DE0C3
:1015F000681C86B20D4800EB051400EB06170020AE
:10160000207067600AA0E060681C85B2042DEFD3EB
:10161000064800EB051400202070606004A0E06024
:10162000024804490860BDE8F08100004011002034
:101630003F0000005400002070B5C821114800F0A0
:1016400001F900230FE0581C85B203EB83000D491C
:1016500001EB800405EB850001EB80060020207083
:101660006660581C83B2092BEDD303EB8300054958
:1016700001EB800400202070606008460249086089
:1016800070BD0000781000205000002000200A49A2
:1016900008600A4908700A4908700A4908700A492E
:1016A00008700A4908600A4908600A4908600A493E
:1016B00008600A490870704790000020650000200B
:1016C0006600002073000020720000204C00002003
:1016D00074000020600000205C00002064000020F6
:1016E00000210A4A1170002004E00021084A115428
:1016F000411CC8B20828F8D30021064A1170064AD6
:101700001170064A1160064A116070476900002096
:101710006A00002067000020680000208000002090
:101720007800002070B54FF47C71194800F08AF8F9
:101730004FF48071174800F085F8002413E0601C16
:10174000C5B2C4EBC40000EB4000114901EB8003BB
:10175000C5EBC50000EB400001EB80065E610EA00A
:10176000D864601CC4B20B2CE9D3C4EBC40000EBFA
:101770004000074901EB80030020586106A0D864AF
:1017800000200649086002480549086070BD000055
:1017900090160020901500203F00000084000020DB
:1017A0007C00002000B587B00320002180220A4B76
:1017B000CDE90132CDE903104FF6FF703F23074A10
:1017C00000900748FFF712FA06AA06A13F20FFF78C
:1017D0006BFA07B000BD0000901300208C150020AC
:1017E0007D1A000875432F4F532D49492049646CD9
:1017F0006500000000B587B00320002180220A4B5D
:10180000CDE90132CDE903104FF6FE703E23074AC1
:1018100000900748FFF7EAF906AA06A13E20FFF765
:1018200043FA07B000BD0000901100208C13002087
:10183000A51A000875432F4F532D49492053746151
:101840007400000004E0002200F8012B4A1E91B24F
:101850000029F8D1704700002DE9F04178211048A7
:10186000FFF7F0FF00240DE0601C86B204EB44009B
:101870000B4901EBC00506EB460001EBC0072F60EA
:10188000601C84B2042CEFD304EB4400044901EB48
:10189000C00500202860084602490860BDE8F081C4
:1018A000801A00208C00002010B50024FEF75CFC9C
:1018B000044613480078F8B912480078E0B900F0FF
:1018C0002DF811481149097850F821001049086095
:1018D0000E4800780F49097888420DD00C480068FE
:1018E000806B401C0A49096888630B480068401CEB
:1018F00009490860FEF750FC2046FEF739FC10BD90
:10190000650000206600002090150020680000207F
:1019100080000020670000204C0000200649074A94
:101920001278885C0649095C034A515C01EBC001EE
:10193000044A1170704700008429000869000020E3
:101940006A000020680000202DE9F84F05460F4688
:1019500090469946DDE90AAB00200090FEF704FCB2
:1019600000903F480468002C74D0183454F8040CDC
:101970003B4908600098FEF7FBFB44F8187CA5760D
:10198000002020766076606144F814BC44F80CAC0A
:1019900044F8108C0C9824F8080C24F8069C0020BD
:1019A000E077E810207705F00700E076217F01203E
:1019B0008840A077E17E0120884060770020606049
:1019C000E060A0602062A0626062E062206325A007
:1019D0006063183C002606E0002104F1500040F846
:1019E0002610701CC6B2002EF6D02046FFF7ACF8C9
:1019F0002046FFF757F9FEF7B7FB00901A4840F86A
:101A000025401A48006860610020A06117480068FE
:101A100010B1164800688461144804603434A0781A
:101A20001349097808431249087020781149085C65
:101A30006178084314F834190E4A50540E4800785F
:101A4000401C0D4908700098FEF792FB0020BDE88D
:101A5000F88FFFE70098FEF78BFB4220F7E70000C6
:101A60007C0000203F000000901500208400002032
:101A7000690000206A00002073000020002400BFDD
:101A800000BFFEF771FB044605480068401C04498E
:101A900008602046FEF76CFBFFF705F9F1E7000050
:101AA00074000020002400BF02E02820FFF776FA2F
:101AB000194800780028F8D0184800686421B0FB65
:101AC000F1F0164908600846006828B9002014495A
:101AD0000870FF20FFF70CFA00BFFEF745FB044635
:101AE000104800681049086000200E490860204630
:101AF000FEF73EFB0C48006808490968B0FBF1F0AE
:101B0000C0F1640006490870FFF75CF900F00EF8B8
:101B10001420FFF743FAE0E7640000205C00002097
:101B20005800002074000020600000207CB50025D3
:101B300014E069462846FFF747F9064666B90948A2
:101B400050F8254044B1012C06D0D4E9020100EB45
:101B5000810060640198A064681CC5B23F2DE8D97B
:101B60007CBD00009015002002F0010343B102F09B
:101B700002032BB102E0491E002308C00029FAD15C
:101B80007047000029B1064AD2690243044BDA616A
:101B900004E0034AD2698243014BDA6170470000D6
:101BA0000010024029B1064A92690243044B9A612F
:101BB00004E0034A92698243014B9A617047000036
:101BC0000010024030B500210022002400232D4DDA
:101BD0006D6805F00C0121B1042905D0082923D135
:101BE00005E0294D056022E0274D05601FE0254DE9
:101BF0006D6805F47012234D6D6805F4803402257C
:101C000005EB92421CB9214D554305600BE01D4D7B
:101C10006D6805F400351DB11C4D5543056002E0AB
:101C2000194D5543056002E0174D056000BF00BF28
:101C3000144D6D6805F0F0010909154D6B5C0568E0
:101C4000DD4045600F4D6D6805F4E061090A104DF7
:101C50006B5C4568DD4085600A4D6D6805F4605138
:101C6000C90A0B4D6B5C4568DD40C560054D6D686C
:101C700005F44041890B074D6B5CC568B5FBF3F576
:101C8000056130BD0010024000127A0000093D00DD
:101C90003600002046000020704710B500F002F822
:101CA00010BD00000CB50020019000903348006882
:101CB00040F480303149086000BF3048006800F4CB
:101CC000003000900198401C0190009818B90198CC
:101CD000B0F5A06FF1D12948006800F4003010B1D0
:101CE0000120009001E0002000900098012843D1DD
:101CF0002348006840F01000214908600846006849
:101D000020F0030008600846006840F00200086008
:101D10001A484068194948600846406848600846C3
:101D2000406840F4806048600846406820F47C10B9
:101D300048600846406840F4E8104860084600687B
:101D400040F08070086000BF0C48006800F0007030
:101D50000028F9D00948406820F00300074948608E
:101D60000846406840F00200486000BF03484068F1
:101D700000F00C000828F9D10CBD00000010024052
:101D800000200240042808D14FF0E021096941F009
:101D900004014FF0E022116107E04FF0E0210969F2
:101DA00021F004014FF0E0221161704710B50548A1
:101DB0000078012805D1FEF787FBFFF72BF9FEF726
:101DC00095FB10BD7200002010B51348006840F06C
:101DD00001001149086008464068104908400E4952
:101DE0004860084600680E4908400B4908600846EC
:101DF000006820F4802008600846406820F4FE0057
:101E000048604FF41F008860FFF747FF4FF0006005
:101E10000449086010BD0000001002400000FFF8F7
:101E2000FFFFF6FE08ED00E010B540F22551064830
:101E300000F06DF838B1044800F024F9C4B221462E
:101E4000014800F024F910BD004C004010B5FEF729
:101E50003BFB40F225511E4800F059F810B31C48D6
:101E600000F010F9C4B21B48008800F40040C8B963
:101E70001848008800F4804060B10A2C03D000208C
:101E80001449088020E01348008840F400401149BC
:101E9000088019E00D2C06D10E48008840F48040DF
:101EA0000C49088010E00B480088C0F30D000A4977
:101EB0000C5408480088401C0649088008460088E1
:101EC000C72801DD00200880FEF710FB10BD0000D0
:101ED0000038014034000020B00F002021B1828979
:101EE00042F40052828104E082894DF6FF731A4069
:101EF0008281704702460020B1F5007F00D100BF0B
:101F000013880B400BB1012000E00020704770B532
:101F10000246002400230025002040F66A16B14244
:101F200000D100BFC1F3421501F01F03012606FADC
:101F300003F3012D02D19689334006E0022D02D130
:101F4000168A334001E0968A33400C12012606FAC5
:101F500004F41688344013B10CB1012000E00020D5
:101F600070BDF0B50346002400260025002040F691
:101F70006A17B94200D100BF1846C1F3421401F0FC
:101F80001F06012707FA06F5012C01D10C3004E0E9
:101F9000022C01D1103000E014301AB107682F4331
:101FA000076002E00768AF430760F0BD2DE9F04726
:101FB00086B005460E460024A24600BFA146002773
:101FC000B08900B100BF2F462C8A4CF6FF70044048
:101FD000F08804432C82AC894EF6F3100440B0889C
:101FE00031890843718908430443AC81AC8A4FF6B8
:101FF000FF400440B0890443AC8201A8FFF7E2FD32
:102000001F48874202D1DDF810A001E0DDF80CA0E6
:10201000A88900F4004040B10AEBCA0000EB0A10A6
:1020200031684900B0FBF1F807E00AEBCA0000EBA9
:102030000A1031688900B0FBF1F86420B8FBF0F0B9
:1020400004012009642101FB1089A88900F40040E3
:1020500040B1322000EBC900B0FBF1F000F0070006
:10206000044308E0322000EB09106421B0FBF1F0DA
:1020700000F00F0004432C8106B0BDE8F08700009B
:102080000038014001468888C0F308007047C1F35A
:1020900008028280704700BFFEE770B504460D4617
:1020A00029462046FFF7F3FF00BF80212046FFF7B7
:1020B00021FF0028F9D070BD70B506460C460025FA
:1020C00000BF615D3046FFF7E8FF6D1C605D0028D2
:1020D000F7D100BF40213046FFF70CFF0028F9D0B0
:1020E00070BD00000FB4054B10B503A9044A029857
:1020F00000F018F810BC5DF814FB00000124000883
:102100003000002002E008C8121F08C1002AFAD1DE
:1021100070477047002001E001C1121F002AFBD167
:10212000704700002DE9FF4F8BB09A460F460546D9
:10213000002606E025280BD052460D9990476D1CCD
:10214000761C28780028F5D10FB03046BDE8F08F16
:102150000024A0460122604900E0044315F8013F35
:10216000203B02FA03F00842F7D128782E2817D135
:1021700015F8010F44F004042A280ED06FF02F0246
:102180002878A0F1300109290AD808EB880102EB70
:10219000410100EB01086D1CF2E757F8048B6D1C40
:1021A000287869283ED006DC0028CDD063280BD0E3
:1021B000642804D136E0732810D075284BD05246DD
:1021C0000D999047761C85E017F8040B8DF80000F8
:1021D00000208DF80100E946012003E057F8049B38
:1021E0004FF0FF3061074FF0000401D40AE0641C97
:1021F00044450DDA8442FADB19F804100029F6D1BF
:1022000006E0641C8442FCDB19F804100029F8D1B4
:10221000264404E019F8010B52460D999047641EBC
:10222000F8D257E001CF4FF00A0B002802DA404203
:102230002D2102E0210504D52B218DF82410012148
:1022400003E0E10705D02021F7E70DF1200908910F
:102250000CE00021F9E701CF4FF00A0BF9E75946EE
:10226000FDF7DCFF01F1300209F8012D0028F6D15D
:10227000ADEB090000F1200B600701D44FF001081D
:10228000D84502DDA8EB0B0000E0002080460024CA
:1022900006E009A85246005D0D999047641C761C23
:1022A00008988442F5DB04E0302052460D999047AF
:1022B000761CB8F10001A8F10108F5DC05E019F879
:1022C000010B52460D999047761CBBF10001ABF112
:1022D000010BF4DC6D1C34E70928010010B56FF028
:1022E0000400FFF74FFD104800681049B0FBF1F003
:1022F0000F4908700C4800680C49B0FBF1F441F23A
:102300008830444305200B4908804FF0E0200069E5
:1023100040F002004FF0E021086108464461006986
:1023200040F00100086110BD1800002000127A0082
:102330002C0000202E00002070B504460F480078C5
:10234000A0B10F48007888B90E480088844206DBA7
:102350000C48008894FBF0F5284600F01DF8094869
:10236000008894FBF0F100FB114084B24FF47A71C5
:1023700004FB01F000F016F870BD000072000020B0
:10238000650000202E00002010B5FEF7A1FA10BD58
:1023900010B5FEF7BDFA10BD10B504462046FEF795
:1023A000FDFD10BD2DE9F047074600264FF0E02067
:1023B000D0F814901148007807FB00F800BFFFF731
:1023C000E3FF4FF0E020856911E04FF0E0208469E1
:1023D000AC420CD0AC4202D2281B064403E0A9EB6D
:1023E0000400284406442546464500D300E0ECE7B7
:1023F00000BFFFF7CDFFBDE8F08700002C000020F4
:1024000000BF054A128802F04002002AF9D0C2B289
:10241000014B1B1D1A80704700380140002456E014
:102420002BA0FFF75FFE07E01420FFF785FF2C4885
:1024300000781E2800DD03E02A4800680028F3D059
:1024400000BF00202849087025480078322200FB90
:1024500002F126A0FFF746FE214800781E281DDC69
:1024600028A0FFF73FFE0125002414E00F20FFF70E
:1024700063FF1D48007860B125A0FFF733FE02E03E
:102480001420FFF759FF174800680028F8D00225EC
:1024900003E0601CC4B2142CE8DD03E020A0FFF7C9
:1024A00021FE0325294621A0FFF71CFE25A0FFF7EA
:1024B00019FE02E01420FFF73FFF0A4800680028D9
:1024C000F8D00020064908701020FEF711FDA7E79C
:1024D0006B65793120697320746F7563680D0A002C
:1024E0000200002014012342030000206B657931B3
:1024F000B5AFC6F02CBEADC0FA3A25646D730D0AB7
:10250000000000006B65793120B6CCB0B40D0A0034
:10251000C1ACD0F8B5E3BBF7C1CB0D0A0000000099
:102520006B65793120B3A4B0B40D0A006B65795F97
:10253000636C69636B5F73746174653D25640D0A38
:10254000000000000D0A2A2A2A2A2A2A2A2A2A2AD0
:102550002A2A2A2A2A2A2A2A2A2A2A2A2A2A2A2ADB
:102560000D0A000008B51AE06A4664210C480068AC
:10257000FEF72AF804469DF8000080B9012C0DD121
:102580000120084908701020FEF7C6FB06480068C5
:10259000FEF78AFA05A10748FFF78EFD00BFE3E7C3
:1025A00004000020030000200800002078787878DC
:1025B00078000000004C004012E00A48006820B992
:1025C000012109480068FEF781F80648006820B933
:1025D000022105480068FEF779F81E20FFF7ACFEDF
:1025E000EBE7000014012342040000200DE000206E
:1025F000064908605020FFF79FFE01200449C1F8FA
:102600008C014FF46670FFF797FEF0E78C012242D1
:10261000000022420EE00020074908604FF4967047
:10262000FFF78AFE01200549C1F890014FF496702A
:10263000FFF782FEEFE700009001224200002242F5
:1026400010B54FF4A060FDF715FFFFF747FEFDF74B
:10265000BDFE00F08DF9FDF717FF0A23044A0021A3
:102660000448FEF773FAFEF74BFA002010BD000095
:10267000AC010020ED26000803E04FF4FA70FFF7EC
:102680005BFEFAE708B50FE06A46002107480068DC
:10269000FEF790F804469DF8000000B104E02146E2
:1026A00003A0FFF71FFD00BFEEE700000C000020B5
:1026B000C7EBC7F3B5BDB6D3C1D0CFFBCFA2A3BA8A
:1026C00025730D0A0000000008B50AE06A460021E3
:1026D00004480068FEF772F903480078401C02497C
:1026E0000870F3E708000020020000207FB50446D0
:1026F000002500BF0020FDF741FF2F4908600020A2
:10270000FEF736F92D4908604FF480712C48FEF72A
:1027100005F82C490860FDF727FD054607232A4ADE
:1027200000212A48FEF712FA0623294A00212948E7
:10273000FEF70CFA0823284A00212848FEF706FA7B
:102740000923274A00212748FEF700FA0B23264ACF
:1027500000212648FEF7FAF90E23254A00212548D4
:10276000FEF7F4F90F23244A00212448FEF7EEF97E
:102770001023234A00212348FEF7E8F91020FEF732
:10278000B7FB03A820A10022214BCDE90021029034
:10279000022201210846FEF7C5FC1E49086003A974
:1027A0001C480068FEF7FAFC0A20FEF7A1FB284649
:1027B000FDF7DEFC7FBD00000400002008000020C3
:1027C000B00B00200C000020AC020020ED2500081A
:1027D000AC03002015260008AC040020B925000831
:1027E000AC05002065250008AC060020C9260008BD
:1027F000AC09002085260008AC0A002079260008D4
:10280000AC0B00201D240008746D72310000000024
:102810001928000810000020024A1288521C014B9F
:102820001A8070470000002010B586B004460121D0
:1028300044F20400FFF7B6F94FF40070ADF814004D
:1028400003208DF8160018208DF8170005A91C48E4
:10285000FDF70FFD4FF48060ADF8140004208DF8F3
:10286000170005A91648FDF704FD25208DF8000086
:1028700003208DF801008DF8020001208DF803007F
:102880006846FDF7BFFD01940020ADF80800ADF8E3
:102890000A00ADF80C00ADF810000C20ADF80E00E9
:1028A00001A90848FFF782FB012240F225510548A3
:1028B000FFF757FB01210348FFF710FB06B010BDDF
:1028C000000801400038014010B586B004460121DF
:1028D0001020FFF767F90121C804FFF753F94FF4FF
:1028E0008060ADF8140003208DF8160018208DF8D4
:1028F000170005A91C48FDF7BCFC4FF40060ADF8BB
:10290000140004208DF8170005A91748FDF7B1FC45
:1029100034208DF8000002208DF8010004208DF88D
:10292000020001208DF803006846FDF76BFD01945D
:102930000020ADF80800ADF80A00ADF80C00ADF8C5
:1029400010000C20ADF80E0001A90848FFF72EFB7F
:10295000012240F225510548FFF703FB01210348FE
:10296000FFF7BCFA06B010BD00100140004C00405B
:1029700010B54FF4E130FFF757FF4FF4E130FFF7A8
:10298000A3FF10BD000001000200010003000100D0
:102990000200010004000100020001000300010028
:1029A0000200010005000100020001000300010017
:1029B0000200010004000100020001000300010008
:1029C00002000100060001000200010003000100F6
:1029D00002000100040001000200010003000100E8
:1029E00002000100050001000200010003000100D7
:1029F00002000100040001000200010003000100C8
:102A000002000100070001000200010003000100B4
:102A100002000100040001000200010003000100A7
:102A20000200010005000100020001000300010096
:102A30000200010004000100020001000300010087
:102A40000200010006000100020001000300010075
:102A50000200010004000100020001000300010067
:102A60000200010005000100020001000300010056
:102A70000200010004000100020001000300010047
:102A800002000100A42A000800000020B00000009D
:102A900004210008542B0008B00000200823000087
:102AA00014210008000000000000000000000000E9
:102AB00000000000000000000000000000A24A0426
:102AC00000000000000000000102030406070809DE
:102AD00000000000000000000000000000000102F3
:102AE00003040102030406070809020406080000A3
:102AF00000000000000000000000000000000000D6
:102B000000000000000000000000000000000000C5
:102B100000000000000000000000000000000000B5
:102B200000000000000000000000000000000000A5
:102B30000000000000000000000000000000000095
:102B40000000000000000000000000000000000085
:042B50000000000081
:0400000508000145A9
:00000001FF
